{
  "_format": "hh-sol-artifact-1",
  "contractName": "Scholarship",
  "sourceName": "contracts/Scholarship.sol",
  "abi": [
    {
      "inputs": [],
      "stateMutability": "nonpayable",
      "type": "constructor"
    },
    {
      "anonymous": false,
      "inputs": [
        {
          "indexed": true,
          "internalType": "address",
          "name": "from",
          "type": "address"
        },
        {
          "indexed": false,
          "internalType": "uint256",
          "name": "amount",
          "type": "uint256"
        }
      ],
      "name": "FundsDeposited",
      "type": "event"
    },
    {
      "anonymous": false,
      "inputs": [
        {
          "indexed": true,
          "internalType": "address",
          "name": "to",
          "type": "address"
        },
        {
          "indexed": false,
          "internalType": "uint256",
          "name": "amount",
          "type": "uint256"
        }
      ],
      "name": "FundsWithdrawn",
      "type": "event"
    },
    {
      "anonymous": false,
      "inputs": [
        {
          "indexed": true,
          "internalType": "address",
          "name": "student",
          "type": "address"
        },
        {
          "indexed": false,
          "internalType": "uint256",
          "name": "amount",
          "type": "uint256"
        },
        {
          "indexed": false,
          "internalType": "uint256",
          "name": "timestamp",
          "type": "uint256"
        }
      ],
      "name": "ScholarshipClaimed",
      "type": "event"
    },
    {
      "anonymous": false,
      "inputs": [
        {
          "indexed": true,
          "internalType": "address",
          "name": "student",
          "type": "address"
        },
        {
          "indexed": false,
          "internalType": "uint256",
          "name": "amount",
          "type": "uint256"
        },
        {
          "indexed": false,
          "internalType": "uint256",
          "name": "timestamp",
          "type": "uint256"
        }
      ],
      "name": "ScholarshipRevoked",
      "type": "event"
    },
    {
      "anonymous": false,
      "inputs": [
        {
          "indexed": true,
          "internalType": "address",
          "name": "student",
          "type": "address"
        },
        {
          "indexed": false,
          "internalType": "uint256",
          "name": "amount",
          "type": "uint256"
        },
        {
          "indexed": false,
          "internalType": "uint256",
          "name": "timestamp",
          "type": "uint256"
        }
      ],
      "name": "StudentRegistered",
      "type": "event"
    },
    {
      "inputs": [],
      "name": "allocatedAmountTotal",
      "outputs": [
        {
          "internalType": "uint256",
          "name": "",
          "type": "uint256"
        }
      ],
      "stateMutability": "view",
      "type": "function"
    },
    {
      "inputs": [],
      "name": "claimScholarship",
      "outputs": [],
      "stateMutability": "nonpayable",
      "type": "function"
    },
    {
      "inputs": [],
      "name": "claimedAmountTotal",
      "outputs": [
        {
          "internalType": "uint256",
          "name": "",
          "type": "uint256"
        }
      ],
      "stateMutability": "view",
      "type": "function"
    },
    {
      "inputs": [],
      "name": "depositFunds",
      "outputs": [],
      "stateMutability": "payable",
      "type": "function"
    },
    {
      "inputs": [],
      "name": "getStats",
      "outputs": [
        {
          "internalType": "uint256",
          "name": "totalAllocated",
          "type": "uint256"
        },
        {
          "internalType": "uint256",
          "name": "claimedAmount",
          "type": "uint256"
        },
        {
          "internalType": "uint256",
          "name": "budget",
          "type": "uint256"
        },
        {
          "internalType": "uint256",
          "name": "remainingBudget",
          "type": "uint256"
        }
      ],
      "stateMutability": "view",
      "type": "function"
    },
    {
      "inputs": [],
      "name": "owner",
      "outputs": [
        {
          "internalType": "address",
          "name": "",
          "type": "address"
        }
      ],
      "stateMutability": "view",
      "type": "function"
    },
    {
      "inputs": [
        {
          "internalType": "address",
          "name": "studentAddr",
          "type": "address"
        },
        {
          "internalType": "uint256",
          "name": "amount",
          "type": "uint256"
        }
      ],
      "name": "registerStudent",
      "outputs": [],
      "stateMutability": "nonpayable",
      "type": "function"
    },
    {
      "inputs": [
        {
          "internalType": "address",
          "name": "studentAddr",
          "type": "address"
        }
      ],
      "name": "revokeRegistration",
      "outputs": [],
      "stateMutability": "nonpayable",
      "type": "function"
    },
    {
      "inputs": [
        {
          "internalType": "address",
          "name": "",
          "type": "address"
        }
      ],
      "name": "students",
      "outputs": [
        {
          "internalType": "uint256",
          "name": "amount",
          "type": "uint256"
        },
        {
          "internalType": "bool",
          "name": "registered",
          "type": "bool"
        },
        {
          "internalType": "bool",
          "name": "claimed",
          "type": "bool"
        },
        {
          "internalType": "uint256",
          "name": "createdAt",
          "type": "uint256"
        },
        {
          "internalType": "uint256",
          "name": "claimedAt",
          "type": "uint256"
        }
      ],
      "stateMutability": "view",
      "type": "function"
    },
    {
      "inputs": [],
      "name": "totalBudget",
      "outputs": [
        {
          "internalType": "uint256",
          "name": "",
          "type": "uint256"
        }
      ],
      "stateMutability": "view",
      "type": "function"
    },
    {
      "inputs": [
        {
          "internalType": "uint256",
          "name": "amount",
          "type": "uint256"
        },
        {
          "internalType": "address payable",
          "name": "to",
          "type": "address"
        }
      ],
      "name": "withdraw",
      "outputs": [],
      "stateMutability": "nonpayable",
      "type": "function"
    },
    {
      "stateMutability": "payable",
      "type": "receive"
    }
  ],
  "bytecode": "0x608060405234801561001057600080fd5b50336000806101000a81548173ffffffffffffffffffffffffffffffffffffffff021916908373ffffffffffffffffffffffffffffffffffffffff1602179055506116c9806100606000396000f3fe60806040526004361061009f5760003560e01c8063af6ee86011610064578063af6ee860146101e7578063c59d484714610210578063c78da39a1461023e578063e2c41dbc14610269578063f8b6a23c14610273578063fe3d58911461029e5761010d565b8062f714ce146101125780631b27b6691461013b5780631f0beb93146101525780638da5cb5b1461017b578063a6c807a9146101a65761010d565b3661010d5734600160008282546100b69190610e1a565b925050819055503373ffffffffffffffffffffffffffffffffffffffff167f543ba50a5eec5e6178218e364b1d0f396157b3c8fa278522c2cb7fd99407d474346040516101039190610e5d565b60405180910390a2005b600080fd5b34801561011e57600080fd5b5061013960048036038101906101349190610f07565b6102c9565b005b34801561014757600080fd5b50610150610499565b005b34801561015e57600080fd5b5061017960048036038101906101749190610f85565b610751565b005b34801561018757600080fd5b506101906109e0565b60405161019d9190610fd4565b60405180910390f35b3480156101b257600080fd5b506101cd60048036038101906101c89190610fef565b610a04565b6040516101de959493929190611037565b60405180910390f35b3480156101f357600080fd5b5061020e60048036038101906102099190610fef565b610a54565b005b34801561021c57600080fd5b50610225610d05565b604051610235949392919061108a565b60405180910390f35b34801561024a57600080fd5b50610253610d23565b6040516102609190610e5d565b60405180910390f35b610271610d29565b005b34801561027f57600080fd5b50610288610dd5565b6040516102959190610e5d565b60405180910390f35b3480156102aa57600080fd5b506102b3610ddb565b6040516102c09190610e5d565b60405180910390f35b60008054906101000a900473ffffffffffffffffffffffffffffffffffffffff1673ffffffffffffffffffffffffffffffffffffffff163373ffffffffffffffffffffffffffffffffffffffff1614610357576040517f08c379a000000000000000000000000000000000000000000000000000000000815260040161034e9061112c565b60405180910390fd5b4782111561039a576040517f08c379a000000000000000000000000000000000000000000000000000000000815260040161039190611198565b60405180910390fd5b60008173ffffffffffffffffffffffffffffffffffffffff16836040516103c0906111e9565b60006040518083038185875af1925050503d80600081146103fd576040519150601f19603f3d011682016040523d82523d6000602084013e610402565b606091505b5050905080610446576040517f08c379a000000000000000000000000000000000000000000000000000000000815260040161043d9061124a565b60405180910390fd5b8173ffffffffffffffffffffffffffffffffffffffff167feaff4b37086828766ad3268786972c0cd24259d4c87a80f9d3963a3c3d999b0d8460405161048c9190610e5d565b60405180910390a2505050565b33600460008273ffffffffffffffffffffffffffffffffffffffff1673ffffffffffffffffffffffffffffffffffffffff16815260200190815260200160002060010160009054906101000a900460ff16610529576040517f08c379a0000000000000000000000000000000000000000000000000000000008152600401610520906112b6565b60405180910390fd5b6000600460003373ffffffffffffffffffffffffffffffffffffffff1673ffffffffffffffffffffffffffffffffffffffff16815260200190815260200160002090508060010160019054906101000a900460ff16156105be576040517f08c379a00000000000000000000000000000000000000000000000000000000081526004016105b590611322565b60405180910390fd5b8060000154471015610605576040517f08c379a00000000000000000000000000000000000000000000000000000000081526004016105fc9061138e565b60405180910390fd5b60018160010160016101000a81548160ff0219169083151502179055504281600301819055508060000154600360008282546106419190610e1a565b9250508190555060003373ffffffffffffffffffffffffffffffffffffffff168260000154604051610672906111e9565b60006040518083038185875af1925050503d80600081146106af576040519150601f19603f3d011682016040523d82523d6000602084013e6106b4565b606091505b50509050806106f8576040517f08c379a00000000000000000000000000000000000000000000000000000000081526004016106ef906113fa565b60405180910390fd5b3373ffffffffffffffffffffffffffffffffffffffff167fb7ba71f42824f65f31a33442ca821de9a305eac66fc80b496f381c10c2aba25c83600001544260405161074492919061141a565b60405180910390a2505050565b60008054906101000a900473ffffffffffffffffffffffffffffffffffffffff1673ffffffffffffffffffffffffffffffffffffffff163373ffffffffffffffffffffffffffffffffffffffff16146107df576040517f08c379a00000000000000000000000000000000000000000000000000000000081526004016107d69061112c565b60405180910390fd5b600073ffffffffffffffffffffffffffffffffffffffff168273ffffffffffffffffffffffffffffffffffffffff160361084e576040517f08c379a00000000000000000000000000000000000000000000000000000000081526004016108459061148f565b60405180910390fd5b60008111610891576040517f08c379a0000000000000000000000000000000000000000000000000000000008152600401610888906114fb565b60405180910390fd5b6000600460008473ffffffffffffffffffffffffffffffffffffffff1673ffffffffffffffffffffffffffffffffffffffff16815260200190815260200160002090508060010160009054906101000a900460ff1615610926576040517f08c379a000000000000000000000000000000000000000000000000000000000815260040161091d90611567565b60405180910390fd5b81816000018190555060018160010160006101000a81548160ff02191690831515021790555060008160010160016101000a81548160ff02191690831515021790555042816002018190555081600260008282546109849190610e1a565b925050819055508273ffffffffffffffffffffffffffffffffffffffff167f86e4679a80d93e8b714b18593a33a7ea7270c83bf7eec34f87c06ab9c1df3dea83426040516109d392919061141a565b60405180910390a2505050565b60008054906101000a900473ffffffffffffffffffffffffffffffffffffffff1681565b60046020528060005260406000206000915090508060000154908060010160009054906101000a900460ff16908060010160019054906101000a900460ff16908060020154908060030154905085565b60008054906101000a900473ffffffffffffffffffffffffffffffffffffffff1673ffffffffffffffffffffffffffffffffffffffff163373ffffffffffffffffffffffffffffffffffffffff1614610ae2576040517f08c379a0000000000000000000000000000000000000000000000000000000008152600401610ad99061112c565b60405180910390fd5b80600460008273ffffffffffffffffffffffffffffffffffffffff1673ffffffffffffffffffffffffffffffffffffffff16815260200190815260200160002060010160009054906101000a900460ff16610b72576040517f08c379a0000000000000000000000000000000000000000000000000000000008152600401610b69906112b6565b60405180910390fd5b6000600460008473ffffffffffffffffffffffffffffffffffffffff1673ffffffffffffffffffffffffffffffffffffffff16815260200190815260200160002090508060010160019054906101000a900460ff1615610c07576040517f08c379a0000000000000000000000000000000000000000000000000000000008152600401610bfe906115d3565b60405180910390fd5b806000015460026000828254610c1d91906115f3565b92505081905550600081600001549050600460008573ffffffffffffffffffffffffffffffffffffffff1673ffffffffffffffffffffffffffffffffffffffff1681526020019081526020016000206000808201600090556001820160006101000a81549060ff02191690556001820160016101000a81549060ff02191690556002820160009055600382016000905550508373ffffffffffffffffffffffffffffffffffffffff167f75d2708dc92a73c7c3dc732f0c539ea0d2607dd6a3bc3eb1c57448bed080e2b68242604051610cf792919061141a565b60405180910390a250505050565b60008060008060025493506003549250600154915047905090919293565b60015481565b60003411610d6c576040517f08c379a0000000000000000000000000000000000000000000000000000000008152600401610d6390611673565b60405180910390fd5b3460016000828254610d7e9190610e1a565b925050819055503373ffffffffffffffffffffffffffffffffffffffff167f543ba50a5eec5e6178218e364b1d0f396157b3c8fa278522c2cb7fd99407d47434604051610dcb9190610e5d565b60405180910390a2565b60025481565b60035481565b6000819050919050565b7f4e487b7100000000000000000000000000000000000000000000000000000000600052601160045260246000fd5b6000610e2582610de1565b9150610e3083610de1565b9250828201905080821115610e4857610e47610deb565b5b92915050565b610e5781610de1565b82525050565b6000602082019050610e726000830184610e4e565b92915050565b600080fd5b610e8681610de1565b8114610e9157600080fd5b50565b600081359050610ea381610e7d565b92915050565b600073ffffffffffffffffffffffffffffffffffffffff82169050919050565b6000610ed482610ea9565b9050919050565b610ee481610ec9565b8114610eef57600080fd5b50565b600081359050610f0181610edb565b92915050565b60008060408385031215610f1e57610f1d610e78565b5b6000610f2c85828601610e94565b9250506020610f3d85828601610ef2565b9150509250929050565b6000610f5282610ea9565b9050919050565b610f6281610f47565b8114610f6d57600080fd5b50565b600081359050610f7f81610f59565b92915050565b60008060408385031215610f9c57610f9b610e78565b5b6000610faa85828601610f70565b9250506020610fbb85828601610e94565b9150509250929050565b610fce81610f47565b82525050565b6000602082019050610fe96000830184610fc5565b92915050565b60006020828403121561100557611004610e78565b5b600061101384828501610f70565b91505092915050565b60008115159050919050565b6110318161101c565b82525050565b600060a08201905061104c6000830188610e4e565b6110596020830187611028565b6110666040830186611028565b6110736060830185610e4e565b6110806080830184610e4e565b9695505050505050565b600060808201905061109f6000830187610e4e565b6110ac6020830186610e4e565b6110b96040830185610e4e565b6110c66060830184610e4e565b95945050505050565b600082825260208201905092915050565b7f4e6f74206f776e65720000000000000000000000000000000000000000000000600082015250565b60006111166009836110cf565b9150611121826110e0565b602082019050919050565b6000602082019050818103600083015261114581611109565b9050919050565b7f496e73756666696369656e742062616c616e6365000000000000000000000000600082015250565b60006111826014836110cf565b915061118d8261114c565b602082019050919050565b600060208201905081810360008301526111b181611175565b9050919050565b600081905092915050565b50565b60006111d36000836111b8565b91506111de826111c3565b600082019050919050565b60006111f4826111c6565b9150819050919050565b7f5769746864726177206661696c65640000000000000000000000000000000000600082015250565b6000611234600f836110cf565b915061123f826111fe565b602082019050919050565b6000602082019050818103600083015261126381611227565b9050919050565b7f53747564656e74206e6f74207265676973746572656400000000000000000000600082015250565b60006112a06016836110cf565b91506112ab8261126a565b602082019050919050565b600060208201905081810360008301526112cf81611293565b9050919050565b7f416c726561647920636c61696d65640000000000000000000000000000000000600082015250565b600061130c600f836110cf565b9150611317826112d6565b602082019050919050565b6000602082019050818103600083015261133b816112ff565b9050919050565b7f496e73756666696369656e7420636f6e74726163742062616c616e6365000000600082015250565b6000611378601d836110cf565b915061138382611342565b602082019050919050565b600060208201905081810360008301526113a78161136b565b9050919050565b7f5472616e73666572206661696c65640000000000000000000000000000000000600082015250565b60006113e4600f836110cf565b91506113ef826113ae565b602082019050919050565b60006020820190508181036000830152611413816113d7565b9050919050565b600060408201905061142f6000830185610e4e565b61143c6020830184610e4e565b9392505050565b7f496e76616c696420616464726573730000000000000000000000000000000000600082015250565b6000611479600f836110cf565b915061148482611443565b602082019050919050565b600060208201905081810360008301526114a88161146c565b9050919050565b7f496e76616c696420616d6f756e74000000000000000000000000000000000000600082015250565b60006114e5600e836110cf565b91506114f0826114af565b602082019050919050565b60006020820190508181036000830152611514816114d8565b9050919050565b7f416c726561647920726567697374657265640000000000000000000000000000600082015250565b60006115516012836110cf565b915061155c8261151b565b602082019050919050565b6000602082019050818103600083015261158081611544565b9050919050565b7f43616e6e6f74207265766f6b6520616674657220636c61696d00000000000000600082015250565b60006115bd6019836110cf565b91506115c882611587565b602082019050919050565b600060208201905081810360008301526115ec816115b0565b9050919050565b60006115fe82610de1565b915061160983610de1565b925082820390508181111561162157611620610deb565b5b92915050565b7f4d7573742073656e642066756e64730000000000000000000000000000000000600082015250565b600061165d600f836110cf565b915061166882611627565b602082019050919050565b6000602082019050818103600083015261168c81611650565b905091905056fea26469706673582212209a985d040d2c9594c35c732606d7d6ba020da14a525b24c5de54804c047b5f2d64736f6c63430008110033",
  "linkReferences": {},
  "deployedLinkReferences": {}
}